{
  "contractName": "Dex",
  "abi": [
    {
      "anonymous": false,
      "inputs": [
        {
          "indexed": true,
          "internalType": "address",
          "name": "previousOwner",
          "type": "address"
        },
        {
          "indexed": true,
          "internalType": "address",
          "name": "newOwner",
          "type": "address"
        }
      ],
      "name": "OwnershipTransferred",
      "type": "event"
    },
    {
      "inputs": [
        {
          "internalType": "bytes32",
          "name": "ticker",
          "type": "bytes32"
        },
        {
          "internalType": "address",
          "name": "tokenAddress",
          "type": "address"
        }
      ],
      "name": "addToken",
      "outputs": [],
      "stateMutability": "nonpayable",
      "type": "function"
    },
    {
      "inputs": [
        {
          "internalType": "uint256",
          "name": "amount",
          "type": "uint256"
        },
        {
          "internalType": "bytes32",
          "name": "ticker",
          "type": "bytes32"
        }
      ],
      "name": "approveSpend",
      "outputs": [],
      "stateMutability": "nonpayable",
      "type": "function"
    },
    {
      "inputs": [
        {
          "internalType": "address",
          "name": "",
          "type": "address"
        },
        {
          "internalType": "bytes32",
          "name": "",
          "type": "bytes32"
        }
      ],
      "name": "balances",
      "outputs": [
        {
          "internalType": "uint256",
          "name": "",
          "type": "uint256"
        }
      ],
      "stateMutability": "view",
      "type": "function"
    },
    {
      "inputs": [
        {
          "internalType": "uint256",
          "name": "amount",
          "type": "uint256"
        },
        {
          "internalType": "bytes32",
          "name": "ticker",
          "type": "bytes32"
        }
      ],
      "name": "deposit",
      "outputs": [],
      "stateMutability": "nonpayable",
      "type": "function"
    },
    {
      "inputs": [],
      "name": "depositEth",
      "outputs": [],
      "stateMutability": "payable",
      "type": "function"
    },
    {
      "inputs": [
        {
          "internalType": "bytes32",
          "name": "",
          "type": "bytes32"
        },
        {
          "internalType": "uint256",
          "name": "",
          "type": "uint256"
        },
        {
          "internalType": "uint256",
          "name": "",
          "type": "uint256"
        }
      ],
      "name": "orderBook",
      "outputs": [
        {
          "internalType": "uint256",
          "name": "id",
          "type": "uint256"
        },
        {
          "internalType": "address",
          "name": "trader",
          "type": "address"
        },
        {
          "internalType": "enum Dex.Side",
          "name": "side",
          "type": "uint8"
        },
        {
          "internalType": "bytes32",
          "name": "ticker",
          "type": "bytes32"
        },
        {
          "internalType": "uint256",
          "name": "amount",
          "type": "uint256"
        },
        {
          "internalType": "uint256",
          "name": "price",
          "type": "uint256"
        },
        {
          "internalType": "uint256",
          "name": "filled",
          "type": "uint256"
        }
      ],
      "stateMutability": "view",
      "type": "function"
    },
    {
      "inputs": [],
      "name": "owner",
      "outputs": [
        {
          "internalType": "address",
          "name": "",
          "type": "address"
        }
      ],
      "stateMutability": "view",
      "type": "function"
    },
    {
      "inputs": [],
      "name": "renounceOwnership",
      "outputs": [],
      "stateMutability": "nonpayable",
      "type": "function"
    },
    {
      "inputs": [
        {
          "internalType": "address",
          "name": "newOwner",
          "type": "address"
        }
      ],
      "name": "transferOwnership",
      "outputs": [],
      "stateMutability": "nonpayable",
      "type": "function"
    },
    {
      "inputs": [
        {
          "internalType": "uint256",
          "name": "amount",
          "type": "uint256"
        },
        {
          "internalType": "bytes32",
          "name": "ticker",
          "type": "bytes32"
        }
      ],
      "name": "withdraw",
      "outputs": [],
      "stateMutability": "nonpayable",
      "type": "function"
    },
    {
      "inputs": [
        {
          "internalType": "uint256",
          "name": "amount",
          "type": "uint256"
        }
      ],
      "name": "withdrawEth",
      "outputs": [],
      "stateMutability": "nonpayable",
      "type": "function"
    },
    {
      "inputs": [
        {
          "internalType": "bytes32",
          "name": "ticker",
          "type": "bytes32"
        },
        {
          "internalType": "enum Dex.Side",
          "name": "side",
          "type": "uint8"
        }
      ],
      "name": "getOrderBook",
      "outputs": [
        {
          "components": [
            {
              "internalType": "uint256",
              "name": "id",
              "type": "uint256"
            },
            {
              "internalType": "address",
              "name": "trader",
              "type": "address"
            },
            {
              "internalType": "enum Dex.Side",
              "name": "side",
              "type": "uint8"
            },
            {
              "internalType": "bytes32",
              "name": "ticker",
              "type": "bytes32"
            },
            {
              "internalType": "uint256",
              "name": "amount",
              "type": "uint256"
            },
            {
              "internalType": "uint256",
              "name": "price",
              "type": "uint256"
            },
            {
              "internalType": "uint256",
              "name": "filled",
              "type": "uint256"
            }
          ],
          "internalType": "struct Dex.Order[]",
          "name": "",
          "type": "tuple[]"
        }
      ],
      "stateMutability": "view",
      "type": "function"
    },
    {
      "inputs": [
        {
          "internalType": "enum Dex.Side",
          "name": "side",
          "type": "uint8"
        },
        {
          "internalType": "bytes32",
          "name": "ticker",
          "type": "bytes32"
        },
        {
          "internalType": "uint256",
          "name": "amount",
          "type": "uint256"
        },
        {
          "internalType": "uint256",
          "name": "price",
          "type": "uint256"
        }
      ],
      "name": "createLimitOrder",
      "outputs": [],
      "stateMutability": "nonpayable",
      "type": "function"
    },
    {
      "inputs": [
        {
          "internalType": "enum Dex.Side",
          "name": "side",
          "type": "uint8"
        },
        {
          "internalType": "bytes32",
          "name": "ticker",
          "type": "bytes32"
        },
        {
          "internalType": "uint256",
          "name": "amount",
          "type": "uint256"
        }
      ],
      "name": "createMarketOrder",
      "outputs": [],
      "stateMutability": "nonpayable",
      "type": "function"
    }
  ],
  "bytecode": "0x60806040523480156200001157600080fd5b5062000032620000266200003860201b60201c565b6200004060201b60201c565b62000104565b600033905090565b60008060009054906101000a900473ffffffffffffffffffffffffffffffffffffffff169050816000806101000a81548173ffffffffffffffffffffffffffffffffffffffff021916908373ffffffffffffffffffffffffffffffffffffffff1602179055508173ffffffffffffffffffffffffffffffffffffffff168173ffffffffffffffffffffffffffffffffffffffff167f8be0079c531659141344cd1fd0a4f28419497f9722a3daafe3b4186f6b6457e060405160405180910390a35050565b61320380620001146000396000f3fe6080604052600436106100dd5760003560e01c806399ec2f1c1161007f578063ba58ea6811610059578063ba58ea681461027b578063c311d049146102b8578063c9630cb0146102e1578063f2fde38b1461030a576100dd565b806399ec2f1c14610200578063a8d2021a14610229578063b3da400614610252576100dd565b80636f3b62f9116100bb5780636f3b62f91461016c578063715018a6146101955780638da5cb5b146101ac5780639776aacf146101d7576100dd565b80630bb431b6146100e25780631f14df6914610125578063439370b114610162575b600080fd5b3480156100ee57600080fd5b5061010960048036038101906101049190612703565b610333565b60405161011c979695949392919061282c565b60405180910390f35b34801561013157600080fd5b5061014c600480360381019061014791906128c7565b6103cc565b6040516101599190612907565b60405180910390f35b61016a6103f1565b005b34801561017857600080fd5b50610193600480360381019061018e9190612947565b6104ea565b005b3480156101a157600080fd5b506101aa610f8f565b005b3480156101b857600080fd5b506101c1611017565b6040516101ce91906129ae565b60405180910390f35b3480156101e357600080fd5b506101fe60048036038101906101f991906129c9565b611040565b005b34801561020c57600080fd5b5061022760048036038101906102229190612a09565b61117b565b005b34801561023557600080fd5b50610250600480360381019061024b9190612a5c565b611c3e565b005b34801561025e57600080fd5b5061027960048036038101906102749190612a5c565b611ee9565b005b34801561028757600080fd5b506102a2600480360381019061029d9190612a9c565b611fa2565b6040516102af9190612c55565b60405180910390f35b3480156102c457600080fd5b506102df60048036038101906102da9190612c77565b6120fb565b005b3480156102ed57600080fd5b5061030860048036038101906103039190612a5c565b612272565b005b34801561031657600080fd5b50610331600480360381019061032c9190612ca4565b61248c565b005b6005602052826000526040600020602052816000526040600020818154811061035b57600080fd5b906000526020600020906006020160009250925050508060000154908060010160009054906101000a900473ffffffffffffffffffffffffffffffffffffffff16908060010160149054906101000a900460ff16908060020154908060030154908060040154908060050154905087565b6003602052816000526040600020602052806000526040600020600091509150505481565b61047434600360003373ffffffffffffffffffffffffffffffffffffffff1673ffffffffffffffffffffffffffffffffffffffff16815260200190815260200160002060007f455448000000000000000000000000000000000000000000000000000000000081526020019081526020016000205461258490919063ffffffff16565b600360003373ffffffffffffffffffffffffffffffffffffffff1673ffffffffffffffffffffffffffffffffffffffff16815260200190815260200160002060007f4554480000000000000000000000000000000000000000000000000000000000815260200190815260200160002081905550565b600060018111156104fe576104fd6127a6565b5b846001811115610511576105106127a6565b5b14156105ab5761052a818361259a90919063ffffffff16565b600360003373ffffffffffffffffffffffffffffffffffffffff1673ffffffffffffffffffffffffffffffffffffffff16815260200190815260200160002060007f455448000000000000000000000000000000000000000000000000000000000081526020019081526020016000205410156105a657600080fd5b610635565b6001808111156105be576105bd6127a6565b5b8460018111156105d1576105d06127a6565b5b14156106345781600360003373ffffffffffffffffffffffffffffffffffffffff1673ffffffffffffffffffffffffffffffffffffffff1681526020019081526020016000206000858152602001908152602001600020541161063357600080fd5b5b5b600060056000858152602001908152602001600020600086600181111561065f5761065e6127a6565b5b815260200190815260200160002090506040518060e0016040528060045481526020013373ffffffffffffffffffffffffffffffffffffffff1681526020018660018111156106b1576106b06127a6565b5b8152602001858152602001848152602001838152602001600081525050806040518060e0016040528060045481526020013373ffffffffffffffffffffffffffffffffffffffff168152602001876001811115610711576107106127a6565b5b8152602001868152602001858152602001848152602001600081525090806001815401808255809150506001900390600052602060002090600602016000909190919091506000820151816000015560208201518160010160006101000a81548173ffffffffffffffffffffffffffffffffffffffff021916908373ffffffffffffffffffffffffffffffffffffffff16021790555060408201518160010160146101000a81548160ff021916908360018111156107d2576107d16127a6565b5b0217905550606082015181600201556080820151816003015560a0820151816004015560c082015181600501555050600080828054905011610815576000610827565b600182805490506108269190612d00565b5b90506000600181111561083d5761083c6127a6565b5b8660018111156108505761084f6127a6565b5b1415610bce575b6000811115610bc95781818154811061087357610872612d34565b5b906000526020600020906006020160040154826001836108939190612d00565b815481106108a4576108a3612d34565b5b90600052602060002090600602016004015411156108c157610bc9565b6000826001836108d19190612d00565b815481106108e2576108e1612d34565b5b90600052602060002090600602016040518060e0016040529081600082015481526020016001820160009054906101000a900473ffffffffffffffffffffffffffffffffffffffff1673ffffffffffffffffffffffffffffffffffffffff1673ffffffffffffffffffffffffffffffffffffffff1681526020016001820160149054906101000a900460ff1660018111156109805761097f6127a6565b5b6001811115610992576109916127a6565b5b815260200160028201548152602001600382015481526020016004820154815260200160058201548152505090508282815481106109d3576109d2612d34565b5b9060005260206000209060060201836001846109ef9190612d00565b81548110610a00576109ff612d34565b5b9060005260206000209060060201600082015481600001556001820160009054906101000a900473ffffffffffffffffffffffffffffffffffffffff168160010160006101000a81548173ffffffffffffffffffffffffffffffffffffffff021916908373ffffffffffffffffffffffffffffffffffffffff1602179055506001820160149054906101000a900460ff168160010160146101000a81548160ff02191690836001811115610ab757610ab66127a6565b5b02179055506002820154816002015560038201548160030155600482015481600401556005820154816005015590505080838381548110610afb57610afa612d34565b5b90600052602060002090600602016000820151816000015560208201518160010160006101000a81548173ffffffffffffffffffffffffffffffffffffffff021916908373ffffffffffffffffffffffffffffffffffffffff16021790555060408201518160010160146101000a81548160ff02191690836001811115610b8557610b846127a6565b5b0217905550606082015181600201556080820151816003015560a0820151816004015560c082015181600501559050508180610bc090612d63565b92505050610857565b610f6f565b600180811115610be157610be06127a6565b5b866001811115610bf457610bf36127a6565b5b1415610f6e575b6000811115610f6d57818181548110610c1757610c16612d34565b5b90600052602060002090600602016004015482600183610c379190612d00565b81548110610c4857610c47612d34565b5b9060005260206000209060060201600401541015610c6557610f6d565b600082600183610c759190612d00565b81548110610c8657610c85612d34565b5b90600052602060002090600602016040518060e0016040529081600082015481526020016001820160009054906101000a900473ffffffffffffffffffffffffffffffffffffffff1673ffffffffffffffffffffffffffffffffffffffff1673ffffffffffffffffffffffffffffffffffffffff1681526020016001820160149054906101000a900460ff166001811115610d2457610d236127a6565b5b6001811115610d3657610d356127a6565b5b81526020016002820154815260200160038201548152602001600482015481526020016005820154815250509050828281548110610d7757610d76612d34565b5b906000526020600020906006020183600184610d939190612d00565b81548110610da457610da3612d34565b5b9060005260206000209060060201600082015481600001556001820160009054906101000a900473ffffffffffffffffffffffffffffffffffffffff168160010160006101000a81548173ffffffffffffffffffffffffffffffffffffffff021916908373ffffffffffffffffffffffffffffffffffffffff1602179055506001820160149054906101000a900460ff168160010160146101000a81548160ff02191690836001811115610e5b57610e5a6127a6565b5b02179055506002820154816002015560038201548160030155600482015481600401556005820154816005015590505080838381548110610e9f57610e9e612d34565b5b90600052602060002090600602016000820151816000015560208201518160010160006101000a81548173ffffffffffffffffffffffffffffffffffffffff021916908373ffffffffffffffffffffffffffffffffffffffff16021790555060408201518160010160146101000a81548160ff02191690836001811115610f2957610f286127a6565b5b0217905550606082015181600201556080820151816003015560a0820151816004015560c082015181600501559050508180610f6490612d63565b92505050610bfb565b5b5b60046000815480929190610f8290612d8d565b9190505550505050505050565b610f976125b0565b73ffffffffffffffffffffffffffffffffffffffff16610fb5611017565b73ffffffffffffffffffffffffffffffffffffffff161461100b576040517f08c379a000000000000000000000000000000000000000000000000000000000815260040161100290612e33565b60405180910390fd5b61101560006125b8565b565b60008060009054906101000a900473ffffffffffffffffffffffffffffffffffffffff16905090565b6110486125b0565b73ffffffffffffffffffffffffffffffffffffffff16611066611017565b73ffffffffffffffffffffffffffffffffffffffff16146110bc576040517f08c379a00000000000000000000000000000000000000000000000000000000081526004016110b390612e33565b60405180910390fd5b60405180604001604052808381526020018273ffffffffffffffffffffffffffffffffffffffff16815250600260008481526020019081526020016000206000820151816000015560208201518160010160006101000a81548173ffffffffffffffffffffffffffffffffffffffff021916908373ffffffffffffffffffffffffffffffffffffffff16021790555090505060018290806001815401808255809150506001900390600052602060002001600090919091909150555050565b60018081111561118e5761118d6127a6565b5b8360018111156111a1576111a06127a6565b5b141561123b5780600360003373ffffffffffffffffffffffffffffffffffffffff1673ffffffffffffffffffffffffffffffffffffffff168152602001908152602001600020600084815260200190815260200160002054101561123a576040517f08c379a000000000000000000000000000000000000000000000000000000000815260040161123190612e9f565b60405180910390fd5b5b60008060018111156112505761124f6127a6565b5b846001811115611263576112626127a6565b5b141561127257600190506112a4565b600180811115611285576112846127a6565b5b846001811115611298576112976127a6565b5b14156112a357600090505b5b60006005600085815260200190815260200160002060008381526020019081526020016000209050600080600090505b8280549050811080156112e657508482105b156119ea576000611300838761267c90919063ffffffff16565b9050600061135f85848154811061131a57611319612d34565b5b90600052602060002090600602016005015486858154811061133f5761133e612d34565b5b90600052602060002090600602016003015461267c90919063ffffffff16565b90506000828211156113735782905061137f565b82821161137e578190505b5b611392818661258490919063ffffffff16565b94506113cb818786815481106113ab576113aa612d34565b5b90600052602060002090600602016005015461258490919063ffffffff16565b8685815481106113de576113dd612d34565b5b906000526020600020906006020160050181905550600061142c87868154811061140b5761140a612d34565b5b9060005260206000209060060201600401548361259a90919063ffffffff16565b905060006001811115611442576114416127a6565b5b8b6001811115611455576114546127a6565b5b14156117415780600360003373ffffffffffffffffffffffffffffffffffffffff1673ffffffffffffffffffffffffffffffffffffffff16815260200190815260200160002060007f455448000000000000000000000000000000000000000000000000000000000081526020019081526020016000205410156114d857600080fd5b80600360003373ffffffffffffffffffffffffffffffffffffffff1673ffffffffffffffffffffffffffffffffffffffff16815260200190815260200160002060007f4554480000000000000000000000000000000000000000000000000000000000815260200190815260200160002060008282546115589190612d00565b9250508190555081600360003373ffffffffffffffffffffffffffffffffffffffff1673ffffffffffffffffffffffffffffffffffffffff16815260200190815260200160002060008c815260200190815260200160002060008282546115bf9190612ebf565b9250508190555081600360008988815481106115de576115dd612d34565b5b906000526020600020906006020160010160009054906101000a900473ffffffffffffffffffffffffffffffffffffffff1673ffffffffffffffffffffffffffffffffffffffff1673ffffffffffffffffffffffffffffffffffffffff16815260200190815260200160002060008c8152602001908152602001600020600082825461166a9190612d00565b92505081905550806003600089888154811061168957611688612d34565b5b906000526020600020906006020160010160009054906101000a900473ffffffffffffffffffffffffffffffffffffffff1673ffffffffffffffffffffffffffffffffffffffff1673ffffffffffffffffffffffffffffffffffffffff16815260200190815260200160002060007f4554480000000000000000000000000000000000000000000000000000000000815260200190815260200160002060008282546117359190612ebf565b925050819055506119d3565b600180811115611754576117536127a6565b5b8b6001811115611767576117666127a6565b5b14156119d257806003600089888154811061178557611784612d34565b5b906000526020600020906006020160010160009054906101000a900473ffffffffffffffffffffffffffffffffffffffff1673ffffffffffffffffffffffffffffffffffffffff1673ffffffffffffffffffffffffffffffffffffffff16815260200190815260200160002060007f4554480000000000000000000000000000000000000000000000000000000000815260200190815260200160002060008282546118319190612d00565b9250508190555080600360003373ffffffffffffffffffffffffffffffffffffffff1673ffffffffffffffffffffffffffffffffffffffff16815260200190815260200160002060007f4554480000000000000000000000000000000000000000000000000000000000815260200190815260200160002060008282546118b89190612ebf565b9250508190555081600360003373ffffffffffffffffffffffffffffffffffffffff1673ffffffffffffffffffffffffffffffffffffffff16815260200190815260200160002060008c8152602001908152602001600020600082825461191f9190612d00565b92505081905550816003600089888154811061193e5761193d612d34565b5b906000526020600020906006020160010160009054906101000a900473ffffffffffffffffffffffffffffffffffffffff1673ffffffffffffffffffffffffffffffffffffffff1673ffffffffffffffffffffffffffffffffffffffff16815260200190815260200160002060008c815260200190815260200160002060008282546119ca9190612ebf565b925050819055505b5b5050505080806119e290612d8d565b9150506112d4565b505b60008280549050118015611a49575081600081548110611a0f57611a0e612d34565b5b90600052602060002090600602016003015482600081548110611a3557611a34612d34565b5b906000526020600020906006020160050154145b15611c365760005b60018380549050611a629190612d00565b811015611ba35782600182611a779190612ebf565b81548110611a8857611a87612d34565b5b9060005260206000209060060201838281548110611aa957611aa8612d34565b5b9060005260206000209060060201600082015481600001556001820160009054906101000a900473ffffffffffffffffffffffffffffffffffffffff168160010160006101000a81548173ffffffffffffffffffffffffffffffffffffffff021916908373ffffffffffffffffffffffffffffffffffffffff1602179055506001820160149054906101000a900460ff168160010160146101000a81548160ff02191690836001811115611b6057611b5f6127a6565b5b0217905550600282015481600201556003820154816003015560048201548160040155600582015481600501559050508080611b9b90612d8d565b915050611a51565b5081805480611bb557611bb4612f15565b5b60019003818190600052602060002090600602016000808201600090556001820160006101000a81549073ffffffffffffffffffffffffffffffffffffffff02191690556001820160146101000a81549060ff02191690556002820160009055600382016000905560048201600090556005820160009055505090556119ec565b505050505050565b80600073ffffffffffffffffffffffffffffffffffffffff166002600083815260200190815260200160002060010160009054906101000a900473ffffffffffffffffffffffffffffffffffffffff1673ffffffffffffffffffffffffffffffffffffffff161415611ce5576040517f08c379a0000000000000000000000000000000000000000000000000000000008152600401611cdc90612f90565b60405180910390fd5b82600360003373ffffffffffffffffffffffffffffffffffffffff1673ffffffffffffffffffffffffffffffffffffffff1681526020019081526020016000206000848152602001908152602001600020541015611d78576040517f08c379a0000000000000000000000000000000000000000000000000000000008152600401611d6f90612ffc565b60405180910390fd5b611ddb83600360003373ffffffffffffffffffffffffffffffffffffffff1673ffffffffffffffffffffffffffffffffffffffff16815260200190815260200160002060008581526020019081526020016000205461267c90919063ffffffff16565b600360003373ffffffffffffffffffffffffffffffffffffffff1673ffffffffffffffffffffffffffffffffffffffff1681526020019081526020016000206000848152602001908152602001600020819055506002600083815260200190815260200160002060010160009054906101000a900473ffffffffffffffffffffffffffffffffffffffff1673ffffffffffffffffffffffffffffffffffffffff1663a9059cbb33856040518363ffffffff1660e01b8152600401611ea092919061301c565b6020604051808303816000875af1158015611ebf573d6000803e3d6000fd5b505050506040513d601f19601f82011682018060405250810190611ee3919061307d565b50505050565b6002600082815260200190815260200160002060010160009054906101000a900473ffffffffffffffffffffffffffffffffffffffff1673ffffffffffffffffffffffffffffffffffffffff1663095ea7b330846040518363ffffffff1660e01b8152600401611f5a92919061301c565b6020604051808303816000875af1158015611f79573d6000803e3d6000fd5b505050506040513d601f19601f82011682018060405250810190611f9d919061307d565b505050565b6060600560008481526020019081526020016000206000836001811115611fcc57611fcb6127a6565b5b8152602001908152602001600020805480602002602001604051908101604052809291908181526020016000905b828210156120ef57838290600052602060002090600602016040518060e0016040529081600082015481526020016001820160009054906101000a900473ffffffffffffffffffffffffffffffffffffffff1673ffffffffffffffffffffffffffffffffffffffff1673ffffffffffffffffffffffffffffffffffffffff1681526020016001820160149054906101000a900460ff1660018111156120a2576120a16127a6565b5b60018111156120b4576120b36127a6565b5b815260200160028201548152602001600382015481526020016004820154815260200160058201548152505081526020019060010190611ffa565b50505050905092915050565b80600360003373ffffffffffffffffffffffffffffffffffffffff1673ffffffffffffffffffffffffffffffffffffffff16815260200190815260200160002060007f4554480000000000000000000000000000000000000000000000000000000000815260200190815260200160002054101561217857600080fd5b6121fb81600360003373ffffffffffffffffffffffffffffffffffffffff1673ffffffffffffffffffffffffffffffffffffffff16815260200190815260200160002060007f455448000000000000000000000000000000000000000000000000000000000081526020019081526020016000205461267c90919063ffffffff16565b600360003373ffffffffffffffffffffffffffffffffffffffff1673ffffffffffffffffffffffffffffffffffffffff16815260200190815260200160002060007f455448000000000000000000000000000000000000000000000000000000000081526020019081526020016000208190555050565b80600073ffffffffffffffffffffffffffffffffffffffff166002600083815260200190815260200160002060010160009054906101000a900473ffffffffffffffffffffffffffffffffffffffff1673ffffffffffffffffffffffffffffffffffffffff161415612319576040517f08c379a000000000000000000000000000000000000000000000000000000000815260040161231090612f90565b60405180910390fd5b61237c83600360003373ffffffffffffffffffffffffffffffffffffffff1673ffffffffffffffffffffffffffffffffffffffff16815260200190815260200160002060008581526020019081526020016000205461258490919063ffffffff16565b600360003373ffffffffffffffffffffffffffffffffffffffff1673ffffffffffffffffffffffffffffffffffffffff1681526020019081526020016000206000848152602001908152602001600020819055506002600083815260200190815260200160002060010160009054906101000a900473ffffffffffffffffffffffffffffffffffffffff1673ffffffffffffffffffffffffffffffffffffffff166323b872dd3330866040518463ffffffff1660e01b8152600401612443939291906130aa565b6020604051808303816000875af1158015612462573d6000803e3d6000fd5b505050506040513d601f19601f82011682018060405250810190612486919061307d565b50505050565b6124946125b0565b73ffffffffffffffffffffffffffffffffffffffff166124b2611017565b73ffffffffffffffffffffffffffffffffffffffff1614612508576040517f08c379a00000000000000000000000000000000000000000000000000000000081526004016124ff90612e33565b60405180910390fd5b600073ffffffffffffffffffffffffffffffffffffffff168173ffffffffffffffffffffffffffffffffffffffff161415612578576040517f08c379a000000000000000000000000000000000000000000000000000000000815260040161256f90613153565b60405180910390fd5b612581816125b8565b50565b600081836125929190612ebf565b905092915050565b600081836125a89190613173565b905092915050565b600033905090565b60008060009054906101000a900473ffffffffffffffffffffffffffffffffffffffff169050816000806101000a81548173ffffffffffffffffffffffffffffffffffffffff021916908373ffffffffffffffffffffffffffffffffffffffff1602179055508173ffffffffffffffffffffffffffffffffffffffff168173ffffffffffffffffffffffffffffffffffffffff167f8be0079c531659141344cd1fd0a4f28419497f9722a3daafe3b4186f6b6457e060405160405180910390a35050565b6000818361268a9190612d00565b905092915050565b600080fd5b6000819050919050565b6126aa81612697565b81146126b557600080fd5b50565b6000813590506126c7816126a1565b92915050565b6000819050919050565b6126e0816126cd565b81146126eb57600080fd5b50565b6000813590506126fd816126d7565b92915050565b60008060006060848603121561271c5761271b612692565b5b600061272a868287016126b8565b935050602061273b868287016126ee565b925050604061274c868287016126ee565b9150509250925092565b61275f816126cd565b82525050565b600073ffffffffffffffffffffffffffffffffffffffff82169050919050565b600061279082612765565b9050919050565b6127a081612785565b82525050565b7f4e487b7100000000000000000000000000000000000000000000000000000000600052602160045260246000fd5b600281106127e6576127e56127a6565b5b50565b60008190506127f7826127d5565b919050565b6000612807826127e9565b9050919050565b612817816127fc565b82525050565b61282681612697565b82525050565b600060e082019050612841600083018a612756565b61284e6020830189612797565b61285b604083018861280e565b612868606083018761281d565b6128756080830186612756565b61288260a0830185612756565b61288f60c0830184612756565b98975050505050505050565b6128a481612785565b81146128af57600080fd5b50565b6000813590506128c18161289b565b92915050565b600080604083850312156128de576128dd612692565b5b60006128ec858286016128b2565b92505060206128fd858286016126b8565b9150509250929050565b600060208201905061291c6000830184612756565b92915050565b6002811061292f57600080fd5b50565b60008135905061294181612922565b92915050565b6000806000806080858703121561296157612960612692565b5b600061296f87828801612932565b9450506020612980878288016126b8565b9350506040612991878288016126ee565b92505060606129a2878288016126ee565b91505092959194509250565b60006020820190506129c36000830184612797565b92915050565b600080604083850312156129e0576129df612692565b5b60006129ee858286016126b8565b92505060206129ff858286016128b2565b9150509250929050565b600080600060608486031215612a2257612a21612692565b5b6000612a3086828701612932565b9350506020612a41868287016126b8565b9250506040612a52868287016126ee565b9150509250925092565b60008060408385031215612a7357612a72612692565b5b6000612a81858286016126ee565b9250506020612a92858286016126b8565b9150509250929050565b60008060408385031215612ab357612ab2612692565b5b6000612ac1858286016126b8565b9250506020612ad285828601612932565b9150509250929050565b600081519050919050565b600082825260208201905092915050565b6000819050602082019050919050565b612b11816126cd565b82525050565b612b2081612785565b82525050565b612b2f816127fc565b82525050565b612b3e81612697565b82525050565b60e082016000820151612b5a6000850182612b08565b506020820151612b6d6020850182612b17565b506040820151612b806040850182612b26565b506060820151612b936060850182612b35565b506080820151612ba66080850182612b08565b5060a0820151612bb960a0850182612b08565b5060c0820151612bcc60c0850182612b08565b50505050565b6000612bde8383612b44565b60e08301905092915050565b6000602082019050919050565b6000612c0282612adc565b612c0c8185612ae7565b9350612c1783612af8565b8060005b83811015612c48578151612c2f8882612bd2565b9750612c3a83612bea565b925050600181019050612c1b565b5085935050505092915050565b60006020820190508181036000830152612c6f8184612bf7565b905092915050565b600060208284031215612c8d57612c8c612692565b5b6000612c9b848285016126ee565b91505092915050565b600060208284031215612cba57612cb9612692565b5b6000612cc8848285016128b2565b91505092915050565b7f4e487b7100000000000000000000000000000000000000000000000000000000600052601160045260246000fd5b6000612d0b826126cd565b9150612d16836126cd565b925082821015612d2957612d28612cd1565b5b828203905092915050565b7f4e487b7100000000000000000000000000000000000000000000000000000000600052603260045260246000fd5b6000612d6e826126cd565b91506000821415612d8257612d81612cd1565b5b600182039050919050565b6000612d98826126cd565b91507fffffffffffffffffffffffffffffffffffffffffffffffffffffffffffffffff821415612dcb57612dca612cd1565b5b600182019050919050565b600082825260208201905092915050565b7f4f776e61626c653a2063616c6c6572206973206e6f7420746865206f776e6572600082015250565b6000612e1d602083612dd6565b9150612e2882612de7565b602082019050919050565b60006020820190508181036000830152612e4c81612e10565b9050919050565b7f496e73756666696369656e742066756e64730000000000000000000000000000600082015250565b6000612e89601283612dd6565b9150612e9482612e53565b602082019050919050565b60006020820190508181036000830152612eb881612e7c565b9050919050565b6000612eca826126cd565b9150612ed5836126cd565b9250827fffffffffffffffffffffffffffffffffffffffffffffffffffffffffffffffff03821115612f0a57612f09612cd1565b5b828201905092915050565b7f4e487b7100000000000000000000000000000000000000000000000000000000600052603160045260246000fd5b7f546f6b656e20446f6573204e6f74204578697374000000000000000000000000600082015250565b6000612f7a601483612dd6565b9150612f8582612f44565b602082019050919050565b60006020820190508181036000830152612fa981612f6d565b9050919050565b7f42616c616e6365204e6f7420537566666963656e740000000000000000000000600082015250565b6000612fe6601583612dd6565b9150612ff182612fb0565b602082019050919050565b6000602082019050818103600083015261301581612fd9565b9050919050565b60006040820190506130316000830185612797565b61303e6020830184612756565b9392505050565b60008115159050919050565b61305a81613045565b811461306557600080fd5b50565b60008151905061307781613051565b92915050565b60006020828403121561309357613092612692565b5b60006130a184828501613068565b91505092915050565b60006060820190506130bf6000830186612797565b6130cc6020830185612797565b6130d96040830184612756565b949350505050565b7f4f776e61626c653a206e6577206f776e657220697320746865207a65726f206160008201527f6464726573730000000000000000000000000000000000000000000000000000602082015250565b600061313d602683612dd6565b9150613148826130e1565b604082019050919050565b6000602082019050818103600083015261316c81613130565b9050919050565b600061317e826126cd565b9150613189836126cd565b9250817fffffffffffffffffffffffffffffffffffffffffffffffffffffffffffffffff04831182151516156131c2576131c1612cd1565b5b82820290509291505056fea264697066735822122051eb3a1c08041a935b72f9cf78e70a62a1531d1fdd372fa26e83e565185523aa64736f6c634300080b0033",
  "immutableReferences": {},
  "source": "pragma solidity >=0.6.0 <0.8.12;\r\npragma experimental ABIEncoderV2;\r\n\r\nimport \"./Wallet.sol\";\r\n\r\ncontract Dex is Wallet {\r\n\r\n    using SafeMath for uint;\r\n   \r\n    enum Side {\r\n        BUY,\r\n        SELL\r\n    }\r\n\r\n    struct Order{\r\n        uint id;\r\n        address trader;\r\n        Side side;\r\n        bytes32 ticker;\r\n        uint amount;\r\n        uint price;\r\n        uint filled;  \r\n    }\r\n\r\n    uint nextOrderId;  //  automatically initilized to 0\r\n\r\n    /**This mapping takes in an assect and points to amother mapping \r\n    that takes the uint value for the Side ENUM and points to the Order Struct*/\r\n    mapping(bytes32 => mapping(uint => Order[])) public orderBook;\r\n\r\n    function getOrderBook(bytes32 ticker, Side side) public view returns(Order[] memory){\r\n        return orderBook[ticker][uint(side)];\r\n    }\r\n\r\n    function createLimitOrder(Side side, bytes32 ticker, uint amount, uint price) public {\r\n\r\n        if (side == Side.BUY){\r\n            require(balances[msg.sender][\"ETH\"] >= amount.mul(price));\r\n        }\r\n        else if(side == Side.SELL){\r\n            require(balances[msg.sender][ticker] > amount);\r\n        }\r\n\r\n        Order[] storage orders = orderBook[ticker][uint(side)]; // we just point or refrence the Order[]\r\n        Order(nextOrderId, msg.sender, side, ticker, amount, price, 0);\r\n        orders.push(Order(nextOrderId, msg.sender, side, ticker, amount, price, 0));\r\n\r\n\r\n        uint i = orders.length > 0 ? orders.length - 1 : 0;\r\n        if(side == Side.BUY){\r\n\r\n            while(i > 0){\r\n                if(orders[i - 1].price > orders[i].price){\r\n                    break;\r\n                }\r\n                Order memory orderToMove = orders[i - 1]; // we save the element next to i in memory\r\n                orders[i - 1] = orders[i];                  // then we set the i to the spot nest to it moving from the right \r\n                orders[i] = orderToMove;              // we then set the value of i ot the orderToMove saved in memory\r\n                i--;\r\n            }\r\n           \r\n        }\r\n\r\n        else if(side == Side.SELL){\r\n            \r\n            while(i > 0){\r\n                if(orders[i - 1].price < orders[i].price){\r\n                    break;\r\n                }\r\n                Order memory orderToMove = orders[i - 1]; \r\n                orders[i - 1] = orders[i];                  \r\n                orders[i] = orderToMove;             \r\n                i--;\r\n            }\r\n\r\n        }\r\n        \r\n        nextOrderId++;\r\n    }\r\n\r\n    function createMarketOrder(Side side, bytes32 ticker, uint amount) public {\r\n       if(side == Side.SELL){\r\n           require(balances[msg.sender][ticker] >= amount, \"Insufficient funds\");\r\n       }\r\n        uint orderBookSide;\r\n         /** check the transaction side and set the orderBookSide to \r\n         opposit of the side */\r\n        if (side == Side.BUY){\r\n            orderBookSide = 1;\r\n        } \r\n        else if(side == Side.SELL){\r\n            orderBookSide = 0;\r\n        }\r\n\r\n        /** create a refrence to the Order[] and pass in the corresponding parameter */\r\n        Order[] storage orders = orderBook[ticker][orderBookSide];\r\n\r\n\r\n        uint totalFilled; // this tracks how much of the market order has been filled \r\n        \r\n        /**Create a loop that loops through the orders[],\r\n        and continue to loop as long as totalFilled is */\r\n        for (uint256 i = 0; i < orders.length && totalFilled < amount; i++) {\r\n            uint leftToFill = amount.sub(totalFilled);\r\n            uint availableToFill = orders[i].amount.sub(orders[i].filled);\r\n            uint filled = 0;\r\n            \r\n            if(availableToFill > leftToFill){  // this completly fills the market order\r\n                filled = leftToFill;\r\n            }\r\n            else if(availableToFill <= leftToFill){     // this fill as much as is available to fill orders[i]\r\n                filled = availableToFill;\r\n            }\r\n\r\n            totalFilled = totalFilled.add(filled);\r\n            orders[i].filled = orders[i].filled.add(filled);\r\n            uint cost = filled.mul(orders[i].price);\r\n\r\n            if(side == Side.BUY){   // Here msg.sender is buyer\r\n                require(balances[msg.sender][\"ETH\"] >= cost); // this check that the buyer has enough ETH\r\n                balances[msg.sender][\"ETH\"] -= cost;\r\n                balances[msg.sender][ticker] += filled;\r\n                balances[orders[i].trader][ticker] -= filled;\r\n                balances[orders[i].trader][\"ETH\"] += cost;    \r\n            }\r\n\r\n            else if(side == Side.SELL){     //Here msg.sender is seller\r\n                balances[orders[i].trader][\"ETH\"] -= cost;\r\n                balances[msg.sender][\"ETH\"] += cost;\r\n                balances[msg.sender][ticker] -= filled;\r\n                balances[orders[i].trader][ticker] += filled;    \r\n            }\r\n\r\n\r\n        }\r\n\r\n        while(orders.length > 0 && orders[0].filled == orders[0].amount){\r\n            for (uint256 i = 0; i < orders.length - 1; i++) {\r\n                orders[i] = orders[i+1];\r\n            }\r\n\r\n            orders.pop();\r\n        }  \r\n\r\n\r\n    }\r\n\r\n\r\n}\r\n",
  "sourcePath": "C:\\Users\\USER\\Desktop\\PROJECT\\dex\\contracts\\Dex.sol",
  "compiler": {
    "name": "solc",
    "version": "0.8.11+commit.d7f03943.Emscripten.clang"
  },
  "schemaVersion": "3.4.5",
  "updatedAt": "2022-02-27T11:13:06.172Z",
  "devdoc": {
    "kind": "dev",
    "methods": {
      "owner()": {
        "details": "Returns the address of the current owner."
      },
      "renounceOwnership()": {
        "details": "Leaves the contract without owner. It will not be possible to call `onlyOwner` functions anymore. Can only be called by the current owner. NOTE: Renouncing ownership will leave the contract without an owner, thereby removing any functionality that is only available to the owner."
      },
      "transferOwnership(address)": {
        "details": "Transfers ownership of the contract to a new account (`newOwner`). Can only be called by the current owner."
      }
    },
    "version": 1
  },
  "userdoc": {
    "kind": "user",
    "methods": {
      "orderBook(bytes32,uint256,uint256)": {
        "notice": "This mapping takes in an assect and points to amother mapping  that takes the uint value for the Side ENUM and points to the Order Struct"
      }
    },
    "version": 1
  }
}