{
  "contractName": "Dex",
  "abi": [
    {
      "anonymous": false,
      "inputs": [
        {
          "indexed": false,
          "internalType": "address",
          "name": "",
          "type": "address"
        },
        {
          "indexed": false,
          "internalType": "enum Dex.Side",
          "name": "",
          "type": "uint8"
        },
        {
          "indexed": false,
          "internalType": "bytes32",
          "name": "",
          "type": "bytes32"
        },
        {
          "indexed": false,
          "internalType": "uint256",
          "name": "",
          "type": "uint256"
        },
        {
          "indexed": false,
          "internalType": "uint256",
          "name": "",
          "type": "uint256"
        }
      ],
      "name": "LimitOrderCreated",
      "type": "event"
    },
    {
      "anonymous": false,
      "inputs": [
        {
          "indexed": false,
          "internalType": "address",
          "name": "",
          "type": "address"
        },
        {
          "indexed": false,
          "internalType": "enum Dex.Side",
          "name": "",
          "type": "uint8"
        },
        {
          "indexed": false,
          "internalType": "bytes32",
          "name": "",
          "type": "bytes32"
        },
        {
          "indexed": false,
          "internalType": "uint256",
          "name": "",
          "type": "uint256"
        }
      ],
      "name": "MarketOrderCreated",
      "type": "event"
    },
    {
      "anonymous": false,
      "inputs": [
        {
          "indexed": true,
          "internalType": "address",
          "name": "previousOwner",
          "type": "address"
        },
        {
          "indexed": true,
          "internalType": "address",
          "name": "newOwner",
          "type": "address"
        }
      ],
      "name": "OwnershipTransferred",
      "type": "event"
    },
    {
      "inputs": [
        {
          "internalType": "bytes32",
          "name": "ticker",
          "type": "bytes32"
        },
        {
          "internalType": "address",
          "name": "tokenAddress",
          "type": "address"
        }
      ],
      "name": "addToken",
      "outputs": [],
      "stateMutability": "nonpayable",
      "type": "function"
    },
    {
      "inputs": [
        {
          "internalType": "uint256",
          "name": "amount",
          "type": "uint256"
        },
        {
          "internalType": "bytes32",
          "name": "ticker",
          "type": "bytes32"
        }
      ],
      "name": "approveSpend",
      "outputs": [],
      "stateMutability": "nonpayable",
      "type": "function"
    },
    {
      "inputs": [
        {
          "internalType": "address",
          "name": "",
          "type": "address"
        },
        {
          "internalType": "bytes32",
          "name": "",
          "type": "bytes32"
        }
      ],
      "name": "balances",
      "outputs": [
        {
          "internalType": "uint256",
          "name": "",
          "type": "uint256"
        }
      ],
      "stateMutability": "view",
      "type": "function",
      "constant": true
    },
    {
      "inputs": [
        {
          "internalType": "uint256",
          "name": "amount",
          "type": "uint256"
        },
        {
          "internalType": "bytes32",
          "name": "ticker",
          "type": "bytes32"
        }
      ],
      "name": "deposit",
      "outputs": [],
      "stateMutability": "nonpayable",
      "type": "function"
    },
    {
      "inputs": [],
      "name": "depositEth",
      "outputs": [],
      "stateMutability": "payable",
      "type": "function",
      "payable": true
    },
    {
      "inputs": [
        {
          "internalType": "bytes32",
          "name": "",
          "type": "bytes32"
        },
        {
          "internalType": "uint256",
          "name": "",
          "type": "uint256"
        },
        {
          "internalType": "uint256",
          "name": "",
          "type": "uint256"
        }
      ],
      "name": "orderBook",
      "outputs": [
        {
          "internalType": "uint256",
          "name": "id",
          "type": "uint256"
        },
        {
          "internalType": "address",
          "name": "trader",
          "type": "address"
        },
        {
          "internalType": "enum Dex.Side",
          "name": "side",
          "type": "uint8"
        },
        {
          "internalType": "bytes32",
          "name": "ticker",
          "type": "bytes32"
        },
        {
          "internalType": "uint256",
          "name": "amount",
          "type": "uint256"
        },
        {
          "internalType": "uint256",
          "name": "price",
          "type": "uint256"
        },
        {
          "internalType": "uint256",
          "name": "filled",
          "type": "uint256"
        }
      ],
      "stateMutability": "view",
      "type": "function",
      "constant": true
    },
    {
      "inputs": [],
      "name": "owner",
      "outputs": [
        {
          "internalType": "address",
          "name": "",
          "type": "address"
        }
      ],
      "stateMutability": "view",
      "type": "function",
      "constant": true
    },
    {
      "inputs": [],
      "name": "renounceOwnership",
      "outputs": [],
      "stateMutability": "nonpayable",
      "type": "function"
    },
    {
      "inputs": [
        {
          "internalType": "address",
          "name": "newOwner",
          "type": "address"
        }
      ],
      "name": "transferOwnership",
      "outputs": [],
      "stateMutability": "nonpayable",
      "type": "function"
    },
    {
      "inputs": [
        {
          "internalType": "uint256",
          "name": "amount",
          "type": "uint256"
        },
        {
          "internalType": "bytes32",
          "name": "ticker",
          "type": "bytes32"
        }
      ],
      "name": "withdraw",
      "outputs": [],
      "stateMutability": "nonpayable",
      "type": "function"
    },
    {
      "inputs": [
        {
          "internalType": "uint256",
          "name": "amount",
          "type": "uint256"
        }
      ],
      "name": "withdrawEth",
      "outputs": [],
      "stateMutability": "nonpayable",
      "type": "function"
    },
    {
      "inputs": [
        {
          "internalType": "bytes32",
          "name": "ticker",
          "type": "bytes32"
        },
        {
          "internalType": "enum Dex.Side",
          "name": "side",
          "type": "uint8"
        }
      ],
      "name": "getOrderBook",
      "outputs": [
        {
          "components": [
            {
              "internalType": "uint256",
              "name": "id",
              "type": "uint256"
            },
            {
              "internalType": "address",
              "name": "trader",
              "type": "address"
            },
            {
              "internalType": "enum Dex.Side",
              "name": "side",
              "type": "uint8"
            },
            {
              "internalType": "bytes32",
              "name": "ticker",
              "type": "bytes32"
            },
            {
              "internalType": "uint256",
              "name": "amount",
              "type": "uint256"
            },
            {
              "internalType": "uint256",
              "name": "price",
              "type": "uint256"
            },
            {
              "internalType": "uint256",
              "name": "filled",
              "type": "uint256"
            }
          ],
          "internalType": "struct Dex.Order[]",
          "name": "",
          "type": "tuple[]"
        }
      ],
      "stateMutability": "view",
      "type": "function",
      "constant": true
    },
    {
      "inputs": [
        {
          "internalType": "enum Dex.Side",
          "name": "side",
          "type": "uint8"
        },
        {
          "internalType": "bytes32",
          "name": "ticker",
          "type": "bytes32"
        },
        {
          "internalType": "uint256",
          "name": "amount",
          "type": "uint256"
        },
        {
          "internalType": "uint256",
          "name": "price",
          "type": "uint256"
        }
      ],
      "name": "createLimitOrder",
      "outputs": [],
      "stateMutability": "nonpayable",
      "type": "function"
    },
    {
      "inputs": [
        {
          "internalType": "enum Dex.Side",
          "name": "side",
          "type": "uint8"
        },
        {
          "internalType": "bytes32",
          "name": "ticker",
          "type": "bytes32"
        },
        {
          "internalType": "uint256",
          "name": "amount",
          "type": "uint256"
        }
      ],
      "name": "createMarketOrder",
      "outputs": [],
      "stateMutability": "nonpayable",
      "type": "function"
    }
  ],
  "bytecode": "0x60806040523480156200001157600080fd5b5062000032620000266200003860201b60201c565b6200004060201b60201c565b62000104565b600033905090565b60008060009054906101000a900473ffffffffffffffffffffffffffffffffffffffff169050816000806101000a81548173ffffffffffffffffffffffffffffffffffffffff021916908373ffffffffffffffffffffffffffffffffffffffff1602179055508173ffffffffffffffffffffffffffffffffffffffff168173ffffffffffffffffffffffffffffffffffffffff167f8be0079c531659141344cd1fd0a4f28419497f9722a3daafe3b4186f6b6457e060405160405180910390a35050565b61331780620001146000396000f3fe6080604052600436106100dd5760003560e01c806399ec2f1c1161007f578063ba58ea6811610059578063ba58ea681461027b578063c311d049146102b8578063c9630cb0146102e1578063f2fde38b1461030a576100dd565b806399ec2f1c14610200578063a8d2021a14610229578063b3da400614610252576100dd565b80636f3b62f9116100bb5780636f3b62f91461016c578063715018a6146101955780638da5cb5b146101ac5780639776aacf146101d7576100dd565b80630bb431b6146100e25780631f14df6914610125578063439370b114610162575b600080fd5b3480156100ee57600080fd5b506101096004803603810190610104919061277f565b610333565b60405161011c97969594939291906128a8565b60405180910390f35b34801561013157600080fd5b5061014c60048036038101906101479190612943565b6103cc565b6040516101599190612983565b60405180910390f35b61016a6103f1565b005b34801561017857600080fd5b50610193600480360381019061018e91906129c3565b6104ea565b005b3480156101a157600080fd5b506101aa610fce565b005b3480156101b857600080fd5b506101c1611056565b6040516101ce9190612a2a565b60405180910390f35b3480156101e357600080fd5b506101fe60048036038101906101f99190612a45565b61107f565b005b34801561020c57600080fd5b5061022760048036038101906102229190612a85565b6111ba565b005b34801561023557600080fd5b50610250600480360381019061024b9190612ad8565b611cba565b005b34801561025e57600080fd5b5061027960048036038101906102749190612ad8565b611f65565b005b34801561028757600080fd5b506102a2600480360381019061029d9190612b18565b61201e565b6040516102af9190612cd1565b60405180910390f35b3480156102c457600080fd5b506102df60048036038101906102da9190612cf3565b612177565b005b3480156102ed57600080fd5b5061030860048036038101906103039190612ad8565b6122ee565b005b34801561031657600080fd5b50610331600480360381019061032c9190612d20565b612508565b005b6005602052826000526040600020602052816000526040600020818154811061035b57600080fd5b906000526020600020906006020160009250925050508060000154908060010160009054906101000a900473ffffffffffffffffffffffffffffffffffffffff16908060010160149054906101000a900460ff16908060020154908060030154908060040154908060050154905087565b6003602052816000526040600020602052806000526040600020600091509150505481565b61047434600360003373ffffffffffffffffffffffffffffffffffffffff1673ffffffffffffffffffffffffffffffffffffffff16815260200190815260200160002060007f455448000000000000000000000000000000000000000000000000000000000081526020019081526020016000205461260090919063ffffffff16565b600360003373ffffffffffffffffffffffffffffffffffffffff1673ffffffffffffffffffffffffffffffffffffffff16815260200190815260200160002060007f4554480000000000000000000000000000000000000000000000000000000000815260200190815260200160002081905550565b600060018111156104fe576104fd612822565b5b84600181111561051157610510612822565b5b14156105ab5761052a818361261690919063ffffffff16565b600360003373ffffffffffffffffffffffffffffffffffffffff1673ffffffffffffffffffffffffffffffffffffffff16815260200190815260200160002060007f455448000000000000000000000000000000000000000000000000000000000081526020019081526020016000205410156105a657600080fd5b610635565b6001808111156105be576105bd612822565b5b8460018111156105d1576105d0612822565b5b14156106345781600360003373ffffffffffffffffffffffffffffffffffffffff1673ffffffffffffffffffffffffffffffffffffffff1681526020019081526020016000206000858152602001908152602001600020541161063357600080fd5b5b5b600060056000858152602001908152602001600020600086600181111561065f5761065e612822565b5b815260200190815260200160002090506040518060e0016040528060045481526020013373ffffffffffffffffffffffffffffffffffffffff1681526020018660018111156106b1576106b0612822565b5b8152602001858152602001848152602001838152602001600081525050806040518060e0016040528060045481526020013373ffffffffffffffffffffffffffffffffffffffff16815260200187600181111561071157610710612822565b5b8152602001868152602001858152602001848152602001600081525090806001815401808255809150506001900390600052602060002090600602016000909190919091506000820151816000015560208201518160010160006101000a81548173ffffffffffffffffffffffffffffffffffffffff021916908373ffffffffffffffffffffffffffffffffffffffff16021790555060408201518160010160146101000a81548160ff021916908360018111156107d2576107d1612822565b5b0217905550606082015181600201556080820151816003015560a0820151816004015560c082015181600501555050600080828054905011610815576000610827565b600182805490506108269190612d7c565b5b90506000600181111561083d5761083c612822565b5b8660018111156108505761084f612822565b5b1415610bce575b6000811115610bc95781818154811061087357610872612db0565b5b906000526020600020906006020160040154826001836108939190612d7c565b815481106108a4576108a3612db0565b5b90600052602060002090600602016004015411156108c157610bc9565b6000826001836108d19190612d7c565b815481106108e2576108e1612db0565b5b90600052602060002090600602016040518060e0016040529081600082015481526020016001820160009054906101000a900473ffffffffffffffffffffffffffffffffffffffff1673ffffffffffffffffffffffffffffffffffffffff1673ffffffffffffffffffffffffffffffffffffffff1681526020016001820160149054906101000a900460ff1660018111156109805761097f612822565b5b600181111561099257610991612822565b5b815260200160028201548152602001600382015481526020016004820154815260200160058201548152505090508282815481106109d3576109d2612db0565b5b9060005260206000209060060201836001846109ef9190612d7c565b81548110610a00576109ff612db0565b5b9060005260206000209060060201600082015481600001556001820160009054906101000a900473ffffffffffffffffffffffffffffffffffffffff168160010160006101000a81548173ffffffffffffffffffffffffffffffffffffffff021916908373ffffffffffffffffffffffffffffffffffffffff1602179055506001820160149054906101000a900460ff168160010160146101000a81548160ff02191690836001811115610ab757610ab6612822565b5b02179055506002820154816002015560038201548160030155600482015481600401556005820154816005015590505080838381548110610afb57610afa612db0565b5b90600052602060002090600602016000820151816000015560208201518160010160006101000a81548173ffffffffffffffffffffffffffffffffffffffff021916908373ffffffffffffffffffffffffffffffffffffffff16021790555060408201518160010160146101000a81548160ff02191690836001811115610b8557610b84612822565b5b0217905550606082015181600201556080820151816003015560a0820151816004015560c082015181600501559050508180610bc090612ddf565b92505050610857565b610f6f565b600180811115610be157610be0612822565b5b866001811115610bf457610bf3612822565b5b1415610f6e575b6000811115610f6d57818181548110610c1757610c16612db0565b5b90600052602060002090600602016004015482600183610c379190612d7c565b81548110610c4857610c47612db0565b5b9060005260206000209060060201600401541015610c6557610f6d565b600082600183610c759190612d7c565b81548110610c8657610c85612db0565b5b90600052602060002090600602016040518060e0016040529081600082015481526020016001820160009054906101000a900473ffffffffffffffffffffffffffffffffffffffff1673ffffffffffffffffffffffffffffffffffffffff1673ffffffffffffffffffffffffffffffffffffffff1681526020016001820160149054906101000a900460ff166001811115610d2457610d23612822565b5b6001811115610d3657610d35612822565b5b81526020016002820154815260200160038201548152602001600482015481526020016005820154815250509050828281548110610d7757610d76612db0565b5b906000526020600020906006020183600184610d939190612d7c565b81548110610da457610da3612db0565b5b9060005260206000209060060201600082015481600001556001820160009054906101000a900473ffffffffffffffffffffffffffffffffffffffff168160010160006101000a81548173ffffffffffffffffffffffffffffffffffffffff021916908373ffffffffffffffffffffffffffffffffffffffff1602179055506001820160149054906101000a900460ff168160010160146101000a81548160ff02191690836001811115610e5b57610e5a612822565b5b02179055506002820154816002015560038201548160030155600482015481600401556005820154816005015590505080838381548110610e9f57610e9e612db0565b5b90600052602060002090600602016000820151816000015560208201518160010160006101000a81548173ffffffffffffffffffffffffffffffffffffffff021916908373ffffffffffffffffffffffffffffffffffffffff16021790555060408201518160010160146101000a81548160ff02191690836001811115610f2957610f28612822565b5b0217905550606082015181600201556080820151816003015560a0820151816004015560c082015181600501559050508180610f6490612ddf565b92505050610bfb565b5b5b60046000815480929190610f8290612e09565b91905055507ffe1abc6ddb98ef93796016ccb5b8d381635ee63e7fc54415dbc56fce710eed333387878787604051610fbe959493929190612e52565b60405180910390a1505050505050565b610fd661262c565b73ffffffffffffffffffffffffffffffffffffffff16610ff4611056565b73ffffffffffffffffffffffffffffffffffffffff161461104a576040517f08c379a000000000000000000000000000000000000000000000000000000000815260040161104190612f02565b60405180910390fd5b6110546000612634565b565b60008060009054906101000a900473ffffffffffffffffffffffffffffffffffffffff16905090565b61108761262c565b73ffffffffffffffffffffffffffffffffffffffff166110a5611056565b73ffffffffffffffffffffffffffffffffffffffff16146110fb576040517f08c379a00000000000000000000000000000000000000000000000000000000081526004016110f290612f02565b60405180910390fd5b60405180604001604052808381526020018273ffffffffffffffffffffffffffffffffffffffff16815250600260008481526020019081526020016000206000820151816000015560208201518160010160006101000a81548173ffffffffffffffffffffffffffffffffffffffff021916908373ffffffffffffffffffffffffffffffffffffffff16021790555090505060018290806001815401808255809150506001900390600052602060002001600090919091909150555050565b6001808111156111cd576111cc612822565b5b8360018111156111e0576111df612822565b5b141561127a5780600360003373ffffffffffffffffffffffffffffffffffffffff1673ffffffffffffffffffffffffffffffffffffffff1681526020019081526020016000206000848152602001908152602001600020541015611279576040517f08c379a000000000000000000000000000000000000000000000000000000000815260040161127090612f6e565b60405180910390fd5b5b600080600181111561128f5761128e612822565b5b8460018111156112a2576112a1612822565b5b14156112b157600190506112e3565b6001808111156112c4576112c3612822565b5b8460018111156112d7576112d6612822565b5b14156112e257600090505b5b60006005600085815260200190815260200160002060008381526020019081526020016000209050600080600090505b82805490508110801561132557508482105b15611a2957600061133f83876126f890919063ffffffff16565b9050600061139e85848154811061135957611358612db0565b5b90600052602060002090600602016005015486858154811061137e5761137d612db0565b5b9060005260206000209060060201600301546126f890919063ffffffff16565b90506000828211156113b2578290506113be565b8282116113bd578190505b5b6113d1818661260090919063ffffffff16565b945061140a818786815481106113ea576113e9612db0565b5b90600052602060002090600602016005015461260090919063ffffffff16565b86858154811061141d5761141c612db0565b5b906000526020600020906006020160050181905550600061146b87868154811061144a57611449612db0565b5b9060005260206000209060060201600401548361261690919063ffffffff16565b90506000600181111561148157611480612822565b5b8b600181111561149457611493612822565b5b14156117805780600360003373ffffffffffffffffffffffffffffffffffffffff1673ffffffffffffffffffffffffffffffffffffffff16815260200190815260200160002060007f4554480000000000000000000000000000000000000000000000000000000000815260200190815260200160002054101561151757600080fd5b80600360003373ffffffffffffffffffffffffffffffffffffffff1673ffffffffffffffffffffffffffffffffffffffff16815260200190815260200160002060007f4554480000000000000000000000000000000000000000000000000000000000815260200190815260200160002060008282546115979190612d7c565b9250508190555081600360003373ffffffffffffffffffffffffffffffffffffffff1673ffffffffffffffffffffffffffffffffffffffff16815260200190815260200160002060008c815260200190815260200160002060008282546115fe9190612f8e565b92505081905550816003600089888154811061161d5761161c612db0565b5b906000526020600020906006020160010160009054906101000a900473ffffffffffffffffffffffffffffffffffffffff1673ffffffffffffffffffffffffffffffffffffffff1673ffffffffffffffffffffffffffffffffffffffff16815260200190815260200160002060008c815260200190815260200160002060008282546116a99190612d7c565b9250508190555080600360008988815481106116c8576116c7612db0565b5b906000526020600020906006020160010160009054906101000a900473ffffffffffffffffffffffffffffffffffffffff1673ffffffffffffffffffffffffffffffffffffffff1673ffffffffffffffffffffffffffffffffffffffff16815260200190815260200160002060007f4554480000000000000000000000000000000000000000000000000000000000815260200190815260200160002060008282546117749190612f8e565b92505081905550611a12565b60018081111561179357611792612822565b5b8b60018111156117a6576117a5612822565b5b1415611a115780600360008988815481106117c4576117c3612db0565b5b906000526020600020906006020160010160009054906101000a900473ffffffffffffffffffffffffffffffffffffffff1673ffffffffffffffffffffffffffffffffffffffff1673ffffffffffffffffffffffffffffffffffffffff16815260200190815260200160002060007f4554480000000000000000000000000000000000000000000000000000000000815260200190815260200160002060008282546118709190612d7c565b9250508190555080600360003373ffffffffffffffffffffffffffffffffffffffff1673ffffffffffffffffffffffffffffffffffffffff16815260200190815260200160002060007f4554480000000000000000000000000000000000000000000000000000000000815260200190815260200160002060008282546118f79190612f8e565b9250508190555081600360003373ffffffffffffffffffffffffffffffffffffffff1673ffffffffffffffffffffffffffffffffffffffff16815260200190815260200160002060008c8152602001908152602001600020600082825461195e9190612d7c565b92505081905550816003600089888154811061197d5761197c612db0565b5b906000526020600020906006020160010160009054906101000a900473ffffffffffffffffffffffffffffffffffffffff1673ffffffffffffffffffffffffffffffffffffffff1673ffffffffffffffffffffffffffffffffffffffff16815260200190815260200160002060008c81526020019081526020016000206000828254611a099190612f8e565b925050819055505b5b505050508080611a2190612e09565b915050611313565b505b60008280549050118015611a88575081600081548110611a4e57611a4d612db0565b5b90600052602060002090600602016003015482600081548110611a7457611a73612db0565b5b906000526020600020906006020160050154145b15611c755760005b60018380549050611aa19190612d7c565b811015611be25782600182611ab69190612f8e565b81548110611ac757611ac6612db0565b5b9060005260206000209060060201838281548110611ae857611ae7612db0565b5b9060005260206000209060060201600082015481600001556001820160009054906101000a900473ffffffffffffffffffffffffffffffffffffffff168160010160006101000a81548173ffffffffffffffffffffffffffffffffffffffff021916908373ffffffffffffffffffffffffffffffffffffffff1602179055506001820160149054906101000a900460ff168160010160146101000a81548160ff02191690836001811115611b9f57611b9e612822565b5b0217905550600282015481600201556003820154816003015560048201548160040155600582015481600501559050508080611bda90612e09565b915050611a90565b5081805480611bf457611bf3612fe4565b5b60019003818190600052602060002090600602016000808201600090556001820160006101000a81549073ffffffffffffffffffffffffffffffffffffffff02191690556001820160146101000a81549060ff0219169055600282016000905560038201600090556004820160009055600582016000905550509055611a2b565b7ff7ad6ad01dfb54aebf4a2be2630ad0c12806e2b4566a38910c719ea83dc9b35233878787604051611caa9493929190613013565b60405180910390a1505050505050565b80600073ffffffffffffffffffffffffffffffffffffffff166002600083815260200190815260200160002060010160009054906101000a900473ffffffffffffffffffffffffffffffffffffffff1673ffffffffffffffffffffffffffffffffffffffff161415611d61576040517f08c379a0000000000000000000000000000000000000000000000000000000008152600401611d58906130a4565b60405180910390fd5b82600360003373ffffffffffffffffffffffffffffffffffffffff1673ffffffffffffffffffffffffffffffffffffffff1681526020019081526020016000206000848152602001908152602001600020541015611df4576040517f08c379a0000000000000000000000000000000000000000000000000000000008152600401611deb90613110565b60405180910390fd5b611e5783600360003373ffffffffffffffffffffffffffffffffffffffff1673ffffffffffffffffffffffffffffffffffffffff1681526020019081526020016000206000858152602001908152602001600020546126f890919063ffffffff16565b600360003373ffffffffffffffffffffffffffffffffffffffff1673ffffffffffffffffffffffffffffffffffffffff1681526020019081526020016000206000848152602001908152602001600020819055506002600083815260200190815260200160002060010160009054906101000a900473ffffffffffffffffffffffffffffffffffffffff1673ffffffffffffffffffffffffffffffffffffffff1663a9059cbb33856040518363ffffffff1660e01b8152600401611f1c929190613130565b6020604051808303816000875af1158015611f3b573d6000803e3d6000fd5b505050506040513d601f19601f82011682018060405250810190611f5f9190613191565b50505050565b6002600082815260200190815260200160002060010160009054906101000a900473ffffffffffffffffffffffffffffffffffffffff1673ffffffffffffffffffffffffffffffffffffffff1663095ea7b330846040518363ffffffff1660e01b8152600401611fd6929190613130565b6020604051808303816000875af1158015611ff5573d6000803e3d6000fd5b505050506040513d601f19601f820116820180604052508101906120199190613191565b505050565b606060056000848152602001908152602001600020600083600181111561204857612047612822565b5b8152602001908152602001600020805480602002602001604051908101604052809291908181526020016000905b8282101561216b57838290600052602060002090600602016040518060e0016040529081600082015481526020016001820160009054906101000a900473ffffffffffffffffffffffffffffffffffffffff1673ffffffffffffffffffffffffffffffffffffffff1673ffffffffffffffffffffffffffffffffffffffff1681526020016001820160149054906101000a900460ff16600181111561211e5761211d612822565b5b60018111156121305761212f612822565b5b815260200160028201548152602001600382015481526020016004820154815260200160058201548152505081526020019060010190612076565b50505050905092915050565b80600360003373ffffffffffffffffffffffffffffffffffffffff1673ffffffffffffffffffffffffffffffffffffffff16815260200190815260200160002060007f455448000000000000000000000000000000000000000000000000000000000081526020019081526020016000205410156121f457600080fd5b61227781600360003373ffffffffffffffffffffffffffffffffffffffff1673ffffffffffffffffffffffffffffffffffffffff16815260200190815260200160002060007f45544800000000000000000000000000000000000000000000000000000000008152602001908152602001600020546126f890919063ffffffff16565b600360003373ffffffffffffffffffffffffffffffffffffffff1673ffffffffffffffffffffffffffffffffffffffff16815260200190815260200160002060007f455448000000000000000000000000000000000000000000000000000000000081526020019081526020016000208190555050565b80600073ffffffffffffffffffffffffffffffffffffffff166002600083815260200190815260200160002060010160009054906101000a900473ffffffffffffffffffffffffffffffffffffffff1673ffffffffffffffffffffffffffffffffffffffff161415612395576040517f08c379a000000000000000000000000000000000000000000000000000000000815260040161238c906130a4565b60405180910390fd5b6123f883600360003373ffffffffffffffffffffffffffffffffffffffff1673ffffffffffffffffffffffffffffffffffffffff16815260200190815260200160002060008581526020019081526020016000205461260090919063ffffffff16565b600360003373ffffffffffffffffffffffffffffffffffffffff1673ffffffffffffffffffffffffffffffffffffffff1681526020019081526020016000206000848152602001908152602001600020819055506002600083815260200190815260200160002060010160009054906101000a900473ffffffffffffffffffffffffffffffffffffffff1673ffffffffffffffffffffffffffffffffffffffff166323b872dd3330866040518463ffffffff1660e01b81526004016124bf939291906131be565b6020604051808303816000875af11580156124de573d6000803e3d6000fd5b505050506040513d601f19601f820116820180604052508101906125029190613191565b50505050565b61251061262c565b73ffffffffffffffffffffffffffffffffffffffff1661252e611056565b73ffffffffffffffffffffffffffffffffffffffff1614612584576040517f08c379a000000000000000000000000000000000000000000000000000000000815260040161257b90612f02565b60405180910390fd5b600073ffffffffffffffffffffffffffffffffffffffff168173ffffffffffffffffffffffffffffffffffffffff1614156125f4576040517f08c379a00000000000000000000000000000000000000000000000000000000081526004016125eb90613267565b60405180910390fd5b6125fd81612634565b50565b6000818361260e9190612f8e565b905092915050565b600081836126249190613287565b905092915050565b600033905090565b60008060009054906101000a900473ffffffffffffffffffffffffffffffffffffffff169050816000806101000a81548173ffffffffffffffffffffffffffffffffffffffff021916908373ffffffffffffffffffffffffffffffffffffffff1602179055508173ffffffffffffffffffffffffffffffffffffffff168173ffffffffffffffffffffffffffffffffffffffff167f8be0079c531659141344cd1fd0a4f28419497f9722a3daafe3b4186f6b6457e060405160405180910390a35050565b600081836127069190612d7c565b905092915050565b600080fd5b6000819050919050565b61272681612713565b811461273157600080fd5b50565b6000813590506127438161271d565b92915050565b6000819050919050565b61275c81612749565b811461276757600080fd5b50565b60008135905061277981612753565b92915050565b6000806000606084860312156127985761279761270e565b5b60006127a686828701612734565b93505060206127b78682870161276a565b92505060406127c88682870161276a565b9150509250925092565b6127db81612749565b82525050565b600073ffffffffffffffffffffffffffffffffffffffff82169050919050565b600061280c826127e1565b9050919050565b61281c81612801565b82525050565b7f4e487b7100000000000000000000000000000000000000000000000000000000600052602160045260246000fd5b6002811061286257612861612822565b5b50565b600081905061287382612851565b919050565b600061288382612865565b9050919050565b61289381612878565b82525050565b6128a281612713565b82525050565b600060e0820190506128bd600083018a6127d2565b6128ca6020830189612813565b6128d7604083018861288a565b6128e46060830187612899565b6128f160808301866127d2565b6128fe60a08301856127d2565b61290b60c08301846127d2565b98975050505050505050565b61292081612801565b811461292b57600080fd5b50565b60008135905061293d81612917565b92915050565b6000806040838503121561295a5761295961270e565b5b60006129688582860161292e565b925050602061297985828601612734565b9150509250929050565b600060208201905061299860008301846127d2565b92915050565b600281106129ab57600080fd5b50565b6000813590506129bd8161299e565b92915050565b600080600080608085870312156129dd576129dc61270e565b5b60006129eb878288016129ae565b94505060206129fc87828801612734565b9350506040612a0d8782880161276a565b9250506060612a1e8782880161276a565b91505092959194509250565b6000602082019050612a3f6000830184612813565b92915050565b60008060408385031215612a5c57612a5b61270e565b5b6000612a6a85828601612734565b9250506020612a7b8582860161292e565b9150509250929050565b600080600060608486031215612a9e57612a9d61270e565b5b6000612aac868287016129ae565b9350506020612abd86828701612734565b9250506040612ace8682870161276a565b9150509250925092565b60008060408385031215612aef57612aee61270e565b5b6000612afd8582860161276a565b9250506020612b0e85828601612734565b9150509250929050565b60008060408385031215612b2f57612b2e61270e565b5b6000612b3d85828601612734565b9250506020612b4e858286016129ae565b9150509250929050565b600081519050919050565b600082825260208201905092915050565b6000819050602082019050919050565b612b8d81612749565b82525050565b612b9c81612801565b82525050565b612bab81612878565b82525050565b612bba81612713565b82525050565b60e082016000820151612bd66000850182612b84565b506020820151612be96020850182612b93565b506040820151612bfc6040850182612ba2565b506060820151612c0f6060850182612bb1565b506080820151612c226080850182612b84565b5060a0820151612c3560a0850182612b84565b5060c0820151612c4860c0850182612b84565b50505050565b6000612c5a8383612bc0565b60e08301905092915050565b6000602082019050919050565b6000612c7e82612b58565b612c888185612b63565b9350612c9383612b74565b8060005b83811015612cc4578151612cab8882612c4e565b9750612cb683612c66565b925050600181019050612c97565b5085935050505092915050565b60006020820190508181036000830152612ceb8184612c73565b905092915050565b600060208284031215612d0957612d0861270e565b5b6000612d178482850161276a565b91505092915050565b600060208284031215612d3657612d3561270e565b5b6000612d448482850161292e565b91505092915050565b7f4e487b7100000000000000000000000000000000000000000000000000000000600052601160045260246000fd5b6000612d8782612749565b9150612d9283612749565b925082821015612da557612da4612d4d565b5b828203905092915050565b7f4e487b7100000000000000000000000000000000000000000000000000000000600052603260045260246000fd5b6000612dea82612749565b91506000821415612dfe57612dfd612d4d565b5b600182039050919050565b6000612e1482612749565b91507fffffffffffffffffffffffffffffffffffffffffffffffffffffffffffffffff821415612e4757612e46612d4d565b5b600182019050919050565b600060a082019050612e676000830188612813565b612e74602083018761288a565b612e816040830186612899565b612e8e60608301856127d2565b612e9b60808301846127d2565b9695505050505050565b600082825260208201905092915050565b7f4f776e61626c653a2063616c6c6572206973206e6f7420746865206f776e6572600082015250565b6000612eec602083612ea5565b9150612ef782612eb6565b602082019050919050565b60006020820190508181036000830152612f1b81612edf565b9050919050565b7f496e73756666696369656e742066756e64730000000000000000000000000000600082015250565b6000612f58601283612ea5565b9150612f6382612f22565b602082019050919050565b60006020820190508181036000830152612f8781612f4b565b9050919050565b6000612f9982612749565b9150612fa483612749565b9250827fffffffffffffffffffffffffffffffffffffffffffffffffffffffffffffffff03821115612fd957612fd8612d4d565b5b828201905092915050565b7f4e487b7100000000000000000000000000000000000000000000000000000000600052603160045260246000fd5b60006080820190506130286000830187612813565b613035602083018661288a565b6130426040830185612899565b61304f60608301846127d2565b95945050505050565b7f546f6b656e20446f6573204e6f74204578697374000000000000000000000000600082015250565b600061308e601483612ea5565b915061309982613058565b602082019050919050565b600060208201905081810360008301526130bd81613081565b9050919050565b7f42616c616e6365204e6f7420537566666963656e740000000000000000000000600082015250565b60006130fa601583612ea5565b9150613105826130c4565b602082019050919050565b60006020820190508181036000830152613129816130ed565b9050919050565b60006040820190506131456000830185612813565b61315260208301846127d2565b9392505050565b60008115159050919050565b61316e81613159565b811461317957600080fd5b50565b60008151905061318b81613165565b92915050565b6000602082840312156131a7576131a661270e565b5b60006131b58482850161317c565b91505092915050565b60006060820190506131d36000830186612813565b6131e06020830185612813565b6131ed60408301846127d2565b949350505050565b7f4f776e61626c653a206e6577206f776e657220697320746865207a65726f206160008201527f6464726573730000000000000000000000000000000000000000000000000000602082015250565b6000613251602683612ea5565b915061325c826131f5565b604082019050919050565b6000602082019050818103600083015261328081613244565b9050919050565b600061329282612749565b915061329d83612749565b9250817fffffffffffffffffffffffffffffffffffffffffffffffffffffffffffffffff04831182151516156132d6576132d5612d4d565b5b82820290509291505056fea26469706673582212204110dd7756db52d4efeae586f0323ac540912ea45c5b2437422c0a5a21fa1a3964736f6c634300080b0033",
  "immutableReferences": {},
  "source": "pragma solidity >=0.6.0 <0.8.12;\r\npragma experimental ABIEncoderV2;\r\n\r\nimport \"./Wallet.sol\";\r\n\r\ncontract Dex is Wallet {\r\n\r\n    event LimitOrderCreated(address, Side, bytes32, uint, uint);\r\n    event MarketOrderCreated(address, Side, bytes32, uint);\r\n\r\n    using SafeMath for uint;\r\n   \r\n    enum Side {\r\n        BUY,\r\n        SELL\r\n    }\r\n\r\n    struct Order{\r\n        uint id;\r\n        address trader;\r\n        Side side;\r\n        bytes32 ticker;\r\n        uint amount;\r\n        uint price;\r\n        uint filled;  \r\n    }\r\n\r\n    uint nextOrderId;  //  automatically initilized to 0\r\n\r\n    /**This mapping takes in an assect and points to amother mapping \r\n    that takes the uint value for the Side ENUM and points to the Order Struct*/\r\n    mapping(bytes32 => mapping(uint => Order[])) public orderBook;\r\n\r\n    function getOrderBook(bytes32 ticker, Side side) public view returns(Order[] memory){\r\n        return orderBook[ticker][uint(side)];\r\n    }\r\n\r\n    function createLimitOrder(Side side, bytes32 ticker, uint amount, uint price) public {\r\n\r\n        if (side == Side.BUY){\r\n            require(balances[msg.sender][\"ETH\"] >= amount.mul(price));\r\n        }\r\n        else if(side == Side.SELL){\r\n            require(balances[msg.sender][ticker] > amount);\r\n        }\r\n\r\n        Order[] storage orders = orderBook[ticker][uint(side)]; // we just point or refrence the Order[]\r\n        Order(nextOrderId, msg.sender, side, ticker, amount, price, 0);\r\n        orders.push(Order(nextOrderId, msg.sender, side, ticker, amount, price, 0));\r\n\r\n\r\n        uint i = orders.length > 0 ? orders.length - 1 : 0;\r\n        if(side == Side.BUY){\r\n\r\n            while(i > 0){\r\n                if(orders[i - 1].price > orders[i].price){\r\n                    break;\r\n                }\r\n                Order memory orderToMove = orders[i - 1]; // we save the element next to i in memory\r\n                orders[i - 1] = orders[i];                  // then we set the i to the spot nest to it moving from the right \r\n                orders[i] = orderToMove;              // we then set the value of i ot the orderToMove saved in memory\r\n                i--;\r\n            }\r\n           \r\n        }\r\n\r\n        else if(side == Side.SELL){\r\n            \r\n            while(i > 0){\r\n                if(orders[i - 1].price < orders[i].price){\r\n                    break;\r\n                }\r\n                Order memory orderToMove = orders[i - 1]; \r\n                orders[i - 1] = orders[i];                  \r\n                orders[i] = orderToMove;             \r\n                i--;\r\n            }\r\n\r\n        }\r\n        \r\n        nextOrderId++;\r\n        emit LimitOrderCreated(msg.sender, side, ticker, amount, price);\r\n    }\r\n\r\n    \r\n    function createMarketOrder(Side side, bytes32 ticker, uint amount) public {\r\n       if(side == Side.SELL){\r\n           require(balances[msg.sender][ticker] >= amount, \"Insufficient funds\");\r\n       }\r\n        uint orderBookSide;\r\n         /** check the transaction side and set the orderBookSide to \r\n         opposit of the side */\r\n        if (side == Side.BUY){\r\n            orderBookSide = 1;\r\n        } \r\n        else if(side == Side.SELL){\r\n            orderBookSide = 0;\r\n        }\r\n\r\n        /** create a refrence to the Order[] and pass in the corresponding parameter */\r\n        Order[] storage orders = orderBook[ticker][orderBookSide];\r\n\r\n\r\n        uint totalFilled; // this tracks how much of the market order has been filled \r\n        \r\n        /**Create a loop that loops through the orders[],\r\n        and continue to loop as long as totalFilled is */\r\n        for (uint256 i = 0; i < orders.length && totalFilled < amount; i++) {\r\n            uint leftToFill = amount.sub(totalFilled);\r\n            uint availableToFill = orders[i].amount.sub(orders[i].filled);\r\n            uint filled = 0;\r\n            \r\n            if(availableToFill > leftToFill){  // this completly fills the market order\r\n                filled = leftToFill;\r\n            }\r\n            else if(availableToFill <= leftToFill){     // this fill as much as is available to fill orders[i]\r\n                filled = availableToFill;\r\n            }\r\n\r\n            totalFilled = totalFilled.add(filled);\r\n            orders[i].filled = orders[i].filled.add(filled);\r\n            uint cost = filled.mul(orders[i].price);\r\n\r\n            if(side == Side.BUY){   // Here msg.sender is buyer\r\n                require(balances[msg.sender][\"ETH\"] >= cost); // this check that the buyer has enough ETH\r\n                balances[msg.sender][\"ETH\"] -= cost;\r\n                balances[msg.sender][ticker] += filled;\r\n                balances[orders[i].trader][ticker] -= filled;\r\n                balances[orders[i].trader][\"ETH\"] += cost;    \r\n            }\r\n\r\n            else if(side == Side.SELL){     //Here msg.sender is seller\r\n                balances[orders[i].trader][\"ETH\"] -= cost;\r\n                balances[msg.sender][\"ETH\"] += cost;\r\n                balances[msg.sender][ticker] -= filled;\r\n                balances[orders[i].trader][ticker] += filled;    \r\n            }\r\n\r\n\r\n        }\r\n\r\n        while(orders.length > 0 && orders[0].filled == orders[0].amount){\r\n            for (uint256 i = 0; i < orders.length - 1; i++) {\r\n                orders[i] = orders[i+1];\r\n            }\r\n\r\n            orders.pop();\r\n        }  \r\n\r\n        emit MarketOrderCreated(msg.sender, side, ticker, amount);\r\n    }\r\n\r\n\r\n}\r\n",
  "sourcePath": "C:\\Users\\USER\\Desktop\\PROJECT\\dex\\contracts\\Dex.sol",
  "compiler": {
    "name": "solc",
    "version": "0.8.11+commit.d7f03943.Emscripten.clang"
  },
  "schemaVersion": "3.4.5",
  "updatedAt": "2022-02-27T11:49:33.823Z",
  "networkType": "ethereum",
  "devdoc": {
    "kind": "dev",
    "methods": {
      "owner()": {
        "details": "Returns the address of the current owner."
      },
      "renounceOwnership()": {
        "details": "Leaves the contract without owner. It will not be possible to call `onlyOwner` functions anymore. Can only be called by the current owner. NOTE: Renouncing ownership will leave the contract without an owner, thereby removing any functionality that is only available to the owner."
      },
      "transferOwnership(address)": {
        "details": "Transfers ownership of the contract to a new account (`newOwner`). Can only be called by the current owner."
      }
    },
    "version": 1
  },
  "userdoc": {
    "kind": "user",
    "methods": {
      "orderBook(bytes32,uint256,uint256)": {
        "notice": "This mapping takes in an assect and points to amother mapping  that takes the uint value for the Side ENUM and points to the Order Struct"
      }
    },
    "version": 1
  }
}