{
  "contractName": "Wallet",
  "abi": [
    {
      "anonymous": false,
      "inputs": [
        {
          "indexed": true,
          "internalType": "address",
          "name": "previousOwner",
          "type": "address"
        },
        {
          "indexed": true,
          "internalType": "address",
          "name": "newOwner",
          "type": "address"
        }
      ],
      "name": "OwnershipTransferred",
      "type": "event"
    },
    {
      "inputs": [
        {
          "internalType": "address",
          "name": "",
          "type": "address"
        },
        {
          "internalType": "bytes32",
          "name": "",
          "type": "bytes32"
        }
      ],
      "name": "balances",
      "outputs": [
        {
          "internalType": "uint256",
          "name": "",
          "type": "uint256"
        }
      ],
      "stateMutability": "view",
      "type": "function"
    },
    {
      "inputs": [],
      "name": "owner",
      "outputs": [
        {
          "internalType": "address",
          "name": "",
          "type": "address"
        }
      ],
      "stateMutability": "view",
      "type": "function"
    },
    {
      "inputs": [],
      "name": "renounceOwnership",
      "outputs": [],
      "stateMutability": "nonpayable",
      "type": "function"
    },
    {
      "inputs": [
        {
          "internalType": "address",
          "name": "newOwner",
          "type": "address"
        }
      ],
      "name": "transferOwnership",
      "outputs": [],
      "stateMutability": "nonpayable",
      "type": "function"
    },
    {
      "inputs": [
        {
          "internalType": "bytes32",
          "name": "ticker",
          "type": "bytes32"
        },
        {
          "internalType": "address",
          "name": "tokenAddress",
          "type": "address"
        }
      ],
      "name": "addToken",
      "outputs": [],
      "stateMutability": "nonpayable",
      "type": "function"
    },
    {
      "inputs": [
        {
          "internalType": "uint256",
          "name": "amount",
          "type": "uint256"
        },
        {
          "internalType": "bytes32",
          "name": "ticker",
          "type": "bytes32"
        }
      ],
      "name": "deposit",
      "outputs": [],
      "stateMutability": "nonpayable",
      "type": "function"
    },
    {
      "inputs": [],
      "name": "depositEth",
      "outputs": [],
      "stateMutability": "payable",
      "type": "function"
    },
    {
      "inputs": [
        {
          "internalType": "uint256",
          "name": "amount",
          "type": "uint256"
        }
      ],
      "name": "withdrawEth",
      "outputs": [],
      "stateMutability": "nonpayable",
      "type": "function"
    },
    {
      "inputs": [
        {
          "internalType": "uint256",
          "name": "amount",
          "type": "uint256"
        },
        {
          "internalType": "bytes32",
          "name": "ticker",
          "type": "bytes32"
        }
      ],
      "name": "withdraw",
      "outputs": [],
      "stateMutability": "nonpayable",
      "type": "function"
    }
  ],
  "bytecode": "0x608060405234801561001057600080fd5b5061002d61002261003260201b60201c565b61003a60201b60201c565b6100fe565b600033905090565b60008060009054906101000a900473ffffffffffffffffffffffffffffffffffffffff169050816000806101000a81548173ffffffffffffffffffffffffffffffffffffffff021916908373ffffffffffffffffffffffffffffffffffffffff1602179055508173ffffffffffffffffffffffffffffffffffffffff168173ffffffffffffffffffffffffffffffffffffffff167f8be0079c531659141344cd1fd0a4f28419497f9722a3daafe3b4186f6b6457e060405160405180910390a35050565b6112ef8061010d6000396000f3fe6080604052600436106100865760003560e01c80639776aacf116100595780639776aacf14610114578063a8d2021a1461013d578063c311d04914610166578063c9630cb01461018f578063f2fde38b146101b857610086565b80631f14df691461008b578063439370b1146100c8578063715018a6146100d25780638da5cb5b146100e9575b600080fd5b34801561009757600080fd5b506100b260048036038101906100ad9190610db0565b6101e1565b6040516100bf9190610e09565b60405180910390f35b6100d0610206565b005b3480156100de57600080fd5b506100e76102ff565b005b3480156100f557600080fd5b506100fe610387565b60405161010b9190610e33565b60405180910390f35b34801561012057600080fd5b5061013b60048036038101906101369190610e4e565b6103b0565b005b34801561014957600080fd5b50610164600480360381019061015f9190610eba565b6104eb565b005b34801561017257600080fd5b5061018d60048036038101906101889190610efa565b610796565b005b34801561019b57600080fd5b506101b660048036038101906101b19190610eba565b61090d565b005b3480156101c457600080fd5b506101df60048036038101906101da9190610f27565b610b27565b005b6003602052816000526040600020602052806000526040600020600091509150505481565b61028934600360003373ffffffffffffffffffffffffffffffffffffffff1673ffffffffffffffffffffffffffffffffffffffff16815260200190815260200160002060007f4554480000000000000000000000000000000000000000000000000000000000815260200190815260200160002054610c1f90919063ffffffff16565b600360003373ffffffffffffffffffffffffffffffffffffffff1673ffffffffffffffffffffffffffffffffffffffff16815260200190815260200160002060007f4554480000000000000000000000000000000000000000000000000000000000815260200190815260200160002081905550565b610307610c35565b73ffffffffffffffffffffffffffffffffffffffff16610325610387565b73ffffffffffffffffffffffffffffffffffffffff161461037b576040517f08c379a000000000000000000000000000000000000000000000000000000000815260040161037290610fb1565b60405180910390fd5b6103856000610c3d565b565b60008060009054906101000a900473ffffffffffffffffffffffffffffffffffffffff16905090565b6103b8610c35565b73ffffffffffffffffffffffffffffffffffffffff166103d6610387565b73ffffffffffffffffffffffffffffffffffffffff161461042c576040517f08c379a000000000000000000000000000000000000000000000000000000000815260040161042390610fb1565b60405180910390fd5b60405180604001604052808381526020018273ffffffffffffffffffffffffffffffffffffffff16815250600260008481526020019081526020016000206000820151816000015560208201518160010160006101000a81548173ffffffffffffffffffffffffffffffffffffffff021916908373ffffffffffffffffffffffffffffffffffffffff16021790555090505060018290806001815401808255809150506001900390600052602060002001600090919091909150555050565b80600073ffffffffffffffffffffffffffffffffffffffff166002600083815260200190815260200160002060010160009054906101000a900473ffffffffffffffffffffffffffffffffffffffff1673ffffffffffffffffffffffffffffffffffffffff161415610592576040517f08c379a00000000000000000000000000000000000000000000000000000000081526004016105899061101d565b60405180910390fd5b82600360003373ffffffffffffffffffffffffffffffffffffffff1673ffffffffffffffffffffffffffffffffffffffff1681526020019081526020016000206000848152602001908152602001600020541015610625576040517f08c379a000000000000000000000000000000000000000000000000000000000815260040161061c90611089565b60405180910390fd5b61068883600360003373ffffffffffffffffffffffffffffffffffffffff1673ffffffffffffffffffffffffffffffffffffffff168152602001908152602001600020600085815260200190815260200160002054610d0190919063ffffffff16565b600360003373ffffffffffffffffffffffffffffffffffffffff1673ffffffffffffffffffffffffffffffffffffffff1681526020019081526020016000206000848152602001908152602001600020819055506002600083815260200190815260200160002060010160009054906101000a900473ffffffffffffffffffffffffffffffffffffffff1673ffffffffffffffffffffffffffffffffffffffff1663a9059cbb33856040518363ffffffff1660e01b815260040161074d9291906110a9565b6020604051808303816000875af115801561076c573d6000803e3d6000fd5b505050506040513d601f19601f82011682018060405250810190610790919061110a565b50505050565b80600360003373ffffffffffffffffffffffffffffffffffffffff1673ffffffffffffffffffffffffffffffffffffffff16815260200190815260200160002060007f4554480000000000000000000000000000000000000000000000000000000000815260200190815260200160002054101561081357600080fd5b61089681600360003373ffffffffffffffffffffffffffffffffffffffff1673ffffffffffffffffffffffffffffffffffffffff16815260200190815260200160002060007f4554480000000000000000000000000000000000000000000000000000000000815260200190815260200160002054610d0190919063ffffffff16565b600360003373ffffffffffffffffffffffffffffffffffffffff1673ffffffffffffffffffffffffffffffffffffffff16815260200190815260200160002060007f455448000000000000000000000000000000000000000000000000000000000081526020019081526020016000208190555050565b80600073ffffffffffffffffffffffffffffffffffffffff166002600083815260200190815260200160002060010160009054906101000a900473ffffffffffffffffffffffffffffffffffffffff1673ffffffffffffffffffffffffffffffffffffffff1614156109b4576040517f08c379a00000000000000000000000000000000000000000000000000000000081526004016109ab9061101d565b60405180910390fd5b610a1783600360003373ffffffffffffffffffffffffffffffffffffffff1673ffffffffffffffffffffffffffffffffffffffff168152602001908152602001600020600085815260200190815260200160002054610c1f90919063ffffffff16565b600360003373ffffffffffffffffffffffffffffffffffffffff1673ffffffffffffffffffffffffffffffffffffffff1681526020019081526020016000206000848152602001908152602001600020819055506002600083815260200190815260200160002060010160009054906101000a900473ffffffffffffffffffffffffffffffffffffffff1673ffffffffffffffffffffffffffffffffffffffff166323b872dd3330866040518463ffffffff1660e01b8152600401610ade93929190611137565b6020604051808303816000875af1158015610afd573d6000803e3d6000fd5b505050506040513d601f19601f82011682018060405250810190610b21919061110a565b50505050565b610b2f610c35565b73ffffffffffffffffffffffffffffffffffffffff16610b4d610387565b73ffffffffffffffffffffffffffffffffffffffff1614610ba3576040517f08c379a0000000000000000000000000000000000000000000000000000000008152600401610b9a90610fb1565b60405180910390fd5b600073ffffffffffffffffffffffffffffffffffffffff168173ffffffffffffffffffffffffffffffffffffffff161415610c13576040517f08c379a0000000000000000000000000000000000000000000000000000000008152600401610c0a906111e0565b60405180910390fd5b610c1c81610c3d565b50565b60008183610c2d919061122f565b905092915050565b600033905090565b60008060009054906101000a900473ffffffffffffffffffffffffffffffffffffffff169050816000806101000a81548173ffffffffffffffffffffffffffffffffffffffff021916908373ffffffffffffffffffffffffffffffffffffffff1602179055508173ffffffffffffffffffffffffffffffffffffffff168173ffffffffffffffffffffffffffffffffffffffff167f8be0079c531659141344cd1fd0a4f28419497f9722a3daafe3b4186f6b6457e060405160405180910390a35050565b60008183610d0f9190611285565b905092915050565b600080fd5b600073ffffffffffffffffffffffffffffffffffffffff82169050919050565b6000610d4782610d1c565b9050919050565b610d5781610d3c565b8114610d6257600080fd5b50565b600081359050610d7481610d4e565b92915050565b6000819050919050565b610d8d81610d7a565b8114610d9857600080fd5b50565b600081359050610daa81610d84565b92915050565b60008060408385031215610dc757610dc6610d17565b5b6000610dd585828601610d65565b9250506020610de685828601610d9b565b9150509250929050565b6000819050919050565b610e0381610df0565b82525050565b6000602082019050610e1e6000830184610dfa565b92915050565b610e2d81610d3c565b82525050565b6000602082019050610e486000830184610e24565b92915050565b60008060408385031215610e6557610e64610d17565b5b6000610e7385828601610d9b565b9250506020610e8485828601610d65565b9150509250929050565b610e9781610df0565b8114610ea257600080fd5b50565b600081359050610eb481610e8e565b92915050565b60008060408385031215610ed157610ed0610d17565b5b6000610edf85828601610ea5565b9250506020610ef085828601610d9b565b9150509250929050565b600060208284031215610f1057610f0f610d17565b5b6000610f1e84828501610ea5565b91505092915050565b600060208284031215610f3d57610f3c610d17565b5b6000610f4b84828501610d65565b91505092915050565b600082825260208201905092915050565b7f4f776e61626c653a2063616c6c6572206973206e6f7420746865206f776e6572600082015250565b6000610f9b602083610f54565b9150610fa682610f65565b602082019050919050565b60006020820190508181036000830152610fca81610f8e565b9050919050565b7f546f6b656e20446f6573204e6f74204578697374000000000000000000000000600082015250565b6000611007601483610f54565b915061101282610fd1565b602082019050919050565b6000602082019050818103600083015261103681610ffa565b9050919050565b7f42616c616e6365204e6f7420537566666963656e740000000000000000000000600082015250565b6000611073601583610f54565b915061107e8261103d565b602082019050919050565b600060208201905081810360008301526110a281611066565b9050919050565b60006040820190506110be6000830185610e24565b6110cb6020830184610dfa565b9392505050565b60008115159050919050565b6110e7816110d2565b81146110f257600080fd5b50565b600081519050611104816110de565b92915050565b6000602082840312156111205761111f610d17565b5b600061112e848285016110f5565b91505092915050565b600060608201905061114c6000830186610e24565b6111596020830185610e24565b6111666040830184610dfa565b949350505050565b7f4f776e61626c653a206e6577206f776e657220697320746865207a65726f206160008201527f6464726573730000000000000000000000000000000000000000000000000000602082015250565b60006111ca602683610f54565b91506111d58261116e565b604082019050919050565b600060208201905081810360008301526111f9816111bd565b9050919050565b7f4e487b7100000000000000000000000000000000000000000000000000000000600052601160045260246000fd5b600061123a82610df0565b915061124583610df0565b9250827fffffffffffffffffffffffffffffffffffffffffffffffffffffffffffffffff0382111561127a57611279611200565b5b828201905092915050565b600061129082610df0565b915061129b83610df0565b9250828210156112ae576112ad611200565b5b82820390509291505056fea26469706673582212201a68b80897e92f22efa41f08d1f23e0acd11d33135c2b05a7a48e0d06cac22b264736f6c634300080b0033",
  "immutableReferences": {},
  "source": "pragma solidity >=0.6.0 <0.8.12;\r\n\r\nimport \"../node_modules/@openzeppelin/contracts/token/ERC20/IERC20.sol\";\r\nimport \"../node_modules/@openzeppelin/contracts/utils/math/SafeMath.sol\";\r\nimport \"../node_modules/@openzeppelin/contracts/access/Ownable.sol\";\r\n\r\ncontract Wallet is Ownable {\r\n\r\n    using SafeMath for uint;\r\n    \r\n    struct Token{\r\n        bytes32 ticker;\r\n        address tokenAddress;\r\n    }\r\n    \r\n    bytes32[] tokenList;\r\n    mapping(bytes32 => Token) tokenMap;\r\n    mapping(address => mapping(bytes32 => uint)) public balances;\r\n\r\n    modifier tokenExist(bytes32 ticker){\r\n        require(tokenMap[ticker].tokenAddress != address(0), \"Token Does Not Exist\");\r\n        _;\r\n    }\r\n\r\n    function addToken(bytes32 ticker, address tokenAddress) external onlyOwner {\r\n        tokenMap[ticker] = Token(ticker, tokenAddress);\r\n        tokenList.push(ticker);\r\n    }\r\n\r\n    function deposit(uint amount, bytes32 ticker) external tokenExist(ticker) {\r\n        balances[msg.sender][ticker] = balances[msg.sender][ticker].add(amount);\r\n        IERC20(tokenMap[ticker].tokenAddress).transferFrom(msg.sender, address(this), amount);\r\n    }\r\n\r\n    function depositEth() payable external {\r\n        balances[msg.sender][bytes32(\"ETH\")] = balances[msg.sender][bytes32(\"ETH\")].add(msg.value);\r\n    }\r\n\r\n    function withdrawEth(uint amount) external {\r\n        require(balances[msg.sender][bytes32(\"ETH\")] >= amount);\r\n        balances[msg.sender][bytes32(\"ETH\")] = balances[msg.sender][bytes32(\"ETH\")].sub(amount);\r\n        msg.sender.call{value: amount};\r\n    }\r\n\r\n    function withdraw(uint amount, bytes32 ticker) external tokenExist(ticker) {\r\n        require(balances[msg.sender][ticker] >= amount, \"Balance Not Sufficent\");\r\n        balances[msg.sender][ticker] = balances[msg.sender][ticker].sub(amount);\r\n        IERC20(tokenMap[ticker].tokenAddress).transfer(msg.sender, amount);\r\n    }\r\n\r\n\r\n}",
  "sourcePath": "C:\\Users\\USER\\Desktop\\PROJECT\\dex\\contracts\\Wallet.sol",
  "compiler": {
    "name": "solc",
    "version": "0.8.11+commit.d7f03943.Emscripten.clang"
  },
  "schemaVersion": "3.4.5",
  "updatedAt": "2022-02-27T07:47:14.189Z",
  "devdoc": {
    "kind": "dev",
    "methods": {
      "owner()": {
        "details": "Returns the address of the current owner."
      },
      "renounceOwnership()": {
        "details": "Leaves the contract without owner. It will not be possible to call `onlyOwner` functions anymore. Can only be called by the current owner. NOTE: Renouncing ownership will leave the contract without an owner, thereby removing any functionality that is only available to the owner."
      },
      "transferOwnership(address)": {
        "details": "Transfers ownership of the contract to a new account (`newOwner`). Can only be called by the current owner."
      }
    },
    "version": 1
  },
  "userdoc": {
    "kind": "user",
    "methods": {},
    "version": 1
  }
}